{
  "address": "0x5B779b160625428Bf5Ee1365A4b8efDE87Ae199e",
  "abi": [
    {
      "inputs": [
        {
          "internalType": "address payable",
          "name": "_zkSyncAddress",
          "type": "address"
        }
      ],
      "stateMutability": "nonpayable",
      "type": "constructor"
    },
    {
      "anonymous": false,
      "inputs": [
        {
          "indexed": true,
          "internalType": "address",
          "name": "user",
          "type": "address"
        },
        {
          "indexed": false,
          "internalType": "uint256",
          "name": "amount",
          "type": "uint256"
        }
      ],
      "name": "Deposit",
      "type": "event"
    },
    {
      "inputs": [],
      "name": "deposit",
      "outputs": [],
      "stateMutability": "payable",
      "type": "function"
    },
    {
      "inputs": [],
      "name": "zkSyncAddress",
      "outputs": [
        {
          "internalType": "address payable",
          "name": "",
          "type": "address"
        }
      ],
      "stateMutability": "view",
      "type": "function"
    }
  ],
  "transactionHash": "0x5b342ccd94315191abd750e2da148bb0799b84860cde5ea969efcbef63110b9f",
  "args": [
    "0x2B602d2f559a0bADf4D5956D03f2b330fBC2e9F9"
  ],
  "numDeployments": 1,
  "solcInputHash": "43368608a6805e55e8399677c3fb8792",
  "bytecode": "0x608060405234801561001057600080fd5b506040516101a73803806101a783398101604081905261002f91610054565b600080546001600160a01b0319166001600160a01b0392909216919091179055610084565b60006020828403121561006657600080fd5b81516001600160a01b038116811461007d57600080fd5b9392505050565b610114806100936000396000f3fe60806040526004361060265760003560e01c80638db4e89d14602b578063d0e30db0146065575b600080fd5b348015603657600080fd5b506000546049906001600160a01b031681565b6040516001600160a01b03909116815260200160405180910390f35b606b606d565b005b600080546040516001600160a01b03909116913480156108fc02929091818181858888f1935050505015801560a6573d6000803e3d6000fd5b5060405134815233907fe1fffcc4923d04b559f4d29a8bfc6cda04eb5b0d3c460751c2402c5c5cc9109c9060200160405180910390a256fea264697066735822122085799c6113ea4a06082a3120128c63b406349245a9ceb83b7e1d8e7d58e760a464736f6c63430008110033",
  "devdoc": {
    "author": "BuidlGuidl",
    "kind": "dev",
    "methods": {},
    "version": 1
  },
  "userdoc": {
    "kind": "user",
    "methods": {},
    "notice": "A smart contract that allows changing a state variable of the contract and tracking the changes It also allows the owner to withdraw the Ether in the contract",
    "version": 1
  },
  "storageLayout": {
    "storage": [
      {
        "astId": 5,
        "contract": "contracts/EthBridge.sol:EthBridge",
        "label": "zkSyncAddress",
        "offset": 0,
        "slot": "0",
        "type": "t_address_payable"
      }
    ],
    "types": {
      "t_address_payable": {
        "encoding": "inplace",
        "label": "address payable",
        "numberOfBytes": "20"
      }
    }
  }
}